:020000041000EA
:1000000000B5324B212058609868022188439860DF
:10001000D860186158612E4B002199600221596106
:100020000121F02299502B49196001219960352056
:1000300000F044F80222904214D00621196600F024
:1000400034F8196E01211966002018661A6600F04E
:100050002CF8196E196E196E052000F02FF8012189
:100060000842F9D1002199601B49196000215960AB
:100070001A491B48016001219960EB211966A021F2
:10008000196600F012F800219960164914480160C1
:100090000121996001BC002800D000471248134993
:1000A000086003C880F30888084703B5996A0420EC
:1000B0000142FBD001200142F8D103BD02B5186610
:1000C0001866FFF7F2FF186E186E02BD00000240BE
:1000D000000000180000070000035F00212200005C
:1000E000F4000018222000A00001001008ED00E03C
:1000F00000000000000000000000000074B24E7A12
:1001000000200420F7010010C3010010C5010010F9
:10011000C1010010C1010010C1010010C101001097
:10012000C1010010C1010010C1010010C701001081
:10013000C1010010C1010010C9010010CB01001065
:10014000CD010010CD010010CD010010CD01001037
:10015000CD010010CD010010CD010010CD01001027
:10016000CD010010CD010010CD010010CD01001017
:10017000CD010010CD010010CD010010CD01001007
:10018000CD010010CD010010CD010010CD010010F7
:10019000CD010010CD010010CD010010CD010010E7
:1001A000CD010010CD010010CD010010CD010010D7
:1001B000CD010010CD010010CD010010CD010010C7
:1001C00000BE00BE00BE00BE00BE00BEEFF3058054
:1001D000103800BEF2EB887194400010B44000105B
:1001E0003802001090A31AE71E481F49086006C88D
:1001F00081F3088810471D480068002801D019487D
:10020000F3E70DA40ECC002902D000F012F8F9E7B4
:100210001749184A002000E001C19142FCD116495B
:100220008847164988471649884700BEFDE701C937
:1002300001C29A42FBD37047B4400010C0000020B6
:10024000880200207C4200100000042000000420EE
:100250007C42001000100420001004200000000068
:10026000704700000000000008ED00E0000000D032
:1002700088020020700600208934001065040010F8
:1002800045340010F8B5C04610B5064C2378002B55
:1002900007D1054B002B02D0044800E000BF01232A
:1002A000237010BD0804002000000000F03700108B
:1002B000044B10B5002B03D00349044800E000BFF5
:1002C00010BDC046000000000C040020F0370010F4
:1002D000F0B5C64600B586B00400042100F0E8F889
:1002E0001F2C54D8630807251D40A8466B460027DD
:1002F00000975F609F6010225A602C4A9A6003AE9C
:10030000320023CB23C2052000F0B6FEC821C9026B
:1003100001F0A0F801F01EFFF421890501F0F6FEBE
:100320008321C90501F00DFF01F03CFF0490204935
:1003300043469A00D3189B005F504346D3189B0056
:100340008C4663449F60DF6005981861049858608C
:100350000123039803434244920053501F2C1DD89D
:10036000620807231A4093009B189B00114A944689
:100370006344E20717D5104A19680A4080214901F1
:100380008C4663441A6006B080BCB846F0BD630872
:1003900003251D4008239846A844A7E762080323C5
:1003A0001A400832DFE7014AE6E7C046FFFF0000D7
:1003B000000005400C0005400000FFFF70B5040080
:1003C00008001F2C37D8620807231A4001210D00AE
:1003D000254093009B189B001F4A9446634421428A
:1003E0002ED00F31802212018A40002D2AD01B49C5
:1003F0001D686A400A40802149018C4663441A60A6
:1004000000F0D4FC1F2C1FD8620807231A40930069
:100410009B189B00104A94466344E20719D50F4A83
:1004200019680A40802149018C4663441A6064209F
:1004300000F0BCFC70BD620803231A400832C5E717
:100440002900CFE70649D3E7620803231A400832A0
:10045000DDE7034AE4E7C0460C0005400000FFFF6B
:10046000FFFF000010B5052000F058F8D024240646
:100470002023A36200220121052000F033F815207B
:1004800000F04CF880239B0363621520FFF720FFE8
:10049000D0231B065B689B06FAD4044803F0FCF8E3
:1004A000FA2189001520FFF789FFF1E7F0370010E6
:1004B00010B58300084A9A18126840245440C0229C
:1004C0002240064CA44663441A60C000044B9C467C
:1004D0006044416010BDC04604C0014004D00140EA
:1004E0000040014080000C4B9C46604400290ED027
:1004F0000823002A0DD004221343026853400C2223
:1005000013408022520194466044036070470023E8
:10051000EFE70022F0E7C04604C0014010B5012318
:100520008340D0221206936293610521FFF7C0FF3A
:1005300010BD00000FB400B583B0084803F0ACF85C
:10054000049B002B07D005A90191180003F0B4F813
:10055000034803F0A1F8012002F072FF00380010F8
:1005600010380010EFF3108072B6034B1B68002B9D
:10057000FBD0BFF35F8F70472C0100D0BFF35F8FBC
:10058000024B00221A6080F3108870472C0100D0C3
:10059000F8B506000C001500FFF7E4FFE308F718B4
:1005A000F15C07222240012393400B4205D1DBB2CC
:1005B0000B433B70FFF7E2FFF8BD21002800FFF777
:1005C000B9FF0000054A1078431CDBB21370172BEB
:1005D00002D9130010221A707047C046380200205A
:1005E000002307E0054A9A189200BFF35F8F0021AD
:1005F000116001331F2BF5D97047C046400000340D
:10060000074B9B68103080001950BFF35F8FBFF31A
:100610005F8F044B0021196082F310887047C04639
:1006200000ED00E0240100D00048704700E400E045
:1006300010B5FFF7F9FF002302E0034A04C00133BD
:10064000072BFAD910BDC04680808080002A05D0D3
:10065000044BC0225200995019607047014A802310
:10066000D150FAE700E100E010B50A001F23034073
:10067000012199404009FFF7E9FF10BD024B9B683B
:1006800010308000C058704700ED00E070B50400E5
:100690000D00EFF3108672B60C4B1B68002BFBD0DD
:1006A000BFF35F8F2000FFF7E9FF094B984201D0AD
:1006B000A84205D1320029002000FFF7A1FF70BD3C
:1006C000044B054AE121054802F0C0FE240100D098
:1006D000CD01001078380010B038001044380010F8
:1006E000024B9C4661448900016070474000003421
:1006F00010B50400FFF766FF01002000FFF7F0FFD0
:10070000FF232371BFF35F8F10BD10B50400FFF707
:1007100059FF01002000FFF7E3FFFF2323710023AF
:100720006371BFF35F8F10BD10B50D4C09E00D4B29
:100730000D4A1A210D4802F089FE2000FFF7D8FF6C
:1007400008340B4B9C4209D22368002BF5D0012BB7
:10075000EDD12000FFF7D9FF0834F2E710BDC04605
:1007600080020020CC38001094390010EC380010C2
:100770008802002000040843704700000A4B1A68F2
:10078000EFF3108172B61368002BFCD0BFF35F8FBC
:10079000054B1B68BFF35F8F00221A6081F310883E
:1007A00040BF0020002170476C060020F0B5DE46F7
:1007B00057464E464546E0B585B0EFF30583032224
:1007C0001A4093469200AE4BD35898461B785B452F
:1007D00007D101235A4693401A000393A94B1A608C
:1007E00012E1A94BA94A9221A94802F02FFE5B0011
:1007F0004B44DB004246526992469A4453469E68F7
:10080000DF68A44800F090FB801BB941002900DAA2
:1008100004E1002F60DB53461C699F4B9C4244D08F
:1008200043460820185E5346598889B2FFF7A2FF55
:1008300053465969A04704000D0023002B434BD0B9
:10084000002D3CDA30003900001BA94100900191D5
:100850005346009801999860D96000255D5F002D8E
:1008600000DADBE043465C696B005B19DB00E318F0
:100870009A68DB68801A9941002900DACEE0434685
:100880001D81474608370023FE5E002E1FDB7500E2
:10089000AD19ED006519009A019BA868E968121A64
:1008A0008B41002B13DB2F00EDE753465C692000E2
:1008B0002369984700280FD065682468BDE775480C
:1008C00000F032FB0019694100900191C0E75346E6
:1008D0001E804B463B80A1E0534600229B5E424671
:1008E00013811269EFF3108372B611680029FCD0EE
:1008F000BFF35F8F42460221525E51460A80424654
:10090000494651801269BFF35F8F0021116083F364
:10091000108883E043461A69EFF3108172B61368BA
:10092000002BFCD0BFF35F8F43469B881BB29946D8
:1009300001235B42424693801369BFF35F8F00221D
:100940001A6081F3108818E026000023F55E002D60
:100950000BDB6C006419E4003C19009A019BA06851
:10096000E168121A8B41002BEEDA4B463380634666
:1009700000229B5E994663461D804B46002B53DB4D
:1009800043465F694B465B004B44DB009C46BC44DE
:100990006346DC689B680093019446460836D4E7BA
:1009A0000023424693714146083143460820185EB1
:1009B00011E001225242D317A260E36043460822AD
:1009C0009B5E834206D00D80434608229B5E2380B7
:1009D000434618812800431C2AD043465A694300E5
:1009E0001B18DB00D418D55E63881BB2002BE0DB3C
:1009F0002100EFE76B1C2BD1264800F095FA241A52
:100A00008D41002D34DC31D0224B039A5A6343468A
:100A100008229B5E9946002B00DBE8E643469B8854
:100A20001BB2002B00DB75E743469B79002BB7D147
:100A3000434608229A5E002A1ADB53009B18DB000B
:100A400042465269944663449C68DD68631CD1D079
:100A5000104B996A601A5A4604329200D3585B1AB6
:100A60009842C9D213000B4A9C50C5E7002CCBD04A
:100A700040BF05B0F0BCBB46B246A946A046F0BD9B
:100A8000580400203C700540A8390010903A00102E
:100A9000D439001000400540AD070010F8B5CE462F
:100AA000474680B50600884691461F00C160FFF7A3
:100AB00089FD1B4B9C466044800030614B4633707F
:100AC000BBB27381D0221206127872700122524298
:100AD0003281B2809B187380002406E0631E65009B
:100AE0002D19ED00726953530134BC42F6D34B46C5
:100AF0009A000C4BD65001244B469C4043461C6246
:100B000009494846FFF7C2FD01214846FFF7ACFD01
:100B1000064941440C60C0BCB946B046F8BDC04669
:100B20004000003458040020AD07001038200000B9
:100B300010B5064B1B69002B01D0044810BD044BB7
:100B4000044A6521044802F081FCC0463C020020B2
:100B5000043A0010783A0010D4390010F0B5C646B7
:100B600000B504000069EFF3108C72B6016800292B
:100B7000FCD0BFF35F8F0221665E7500AD19ED00FA
:100B8000616988464544002E02DB0020295E6180B1
:100B90002169BFF35F8F002008608CF31088002E5E
:100BA0002EDB0699296107996961AA60EB606B8861
:100BB00001335B04590C002B00D101216980300006
:100BC000FFF7D8FD2269EFF3108172B61368002B8E
:100BD000FCD0BFF35F8FA3882B80A6802369BFF36F
:100BE0005F8F00221A6081F31088E3682178013258
:100BF0008A4005498C4663441A6080BCB846F0BD03
:100C000001204042F9E7C0463C20000070B582B0A8
:100C1000060014001D0008AB1B78002B07D100F064
:100C200099F922002B00121A8B41002B0ADB079B3B
:100C30000193069B009322002B003000FFF78EFFEC
:100C400002B070BD0020FBE710B5030008145A89FC
:100C500090422FDA42001218D2005869844662444A
:100C60001C69EFF3108C72B620680028FCD0BFF32B
:100C70005F8F508880B20904090C884212D000208E
:100C80001A69BFF35F8F002111608CF31088002870
:100C900011D0DA681B7801319940074B9C466244B9
:100CA000116008E00549084380B2508001229A7122
:100CB0000120E5E7002010BD3C2000000080FFFF80
:100CC000F0B585B006000F00EFF30583002B1AD1B5
:100CD00006246442E517A4197D418D4202D803D150
:100CE000844201D90024002500F034F922002B00B1
:100CF000121A8B41002B0BDC08D03000390000F0B9
:100D000031F905B0F0BD1C48FFF714FC002AF4D0FF
:100D1000FFF70EFF002302930193184B009322006C
:100D20002B00FFF773FF002818DAE6E7002300E046
:100D30000023002BE1D1124B1A68EFF3108172B639
:100D40001368002BFCD0BFF35F8F0D4B1B68BFF304
:100D50005F8F00221A6081F3108820BF094B5B6A05
:100D60009D42E5D80749896AA14203D29D42DDD060
:100D70000123DEE70123DCE7283A00107D0700109D
:100D80006C0600200040054070B504000D0000F026
:100D9000E1F800196941002902DBFFF791FF70BDFE
:100DA000012040420049F8E7FFFFFF7F10B5FA221B
:100DB00092000023002101F087F9FFF7E5FF10BD45
:100DC00070B584B005000C00EFF30583002B12D042
:100DD0003E4B5B6A8B4209D33C4A926A824208D2FC
:100DE0008B4201D0012002E0002000E0002004B08E
:100DF00070BD0120FBE7FFF79BFEC16803788A6A9C
:100E00002E00A81A04339B005B589B1A984212D3F9
:100E100020BF2E4B5B6A9C4209D82C4A926A9542AD
:100E200007D99C4201D00120E1E70020DFE7002044
:100E3000DDE70120DBE7FFF77BFE00230293019350
:100E4000234B00932A002300FFF7E0FE051E0BDD75
:100E50001E4B5B6A9C421BD81C4A926A96422CD954
:100E60009C4213D0012314E0184B5B6A9C4209D8C2
:100E7000164A926A964207D99C4201D00120B6E7F1
:100E80000020B4E70020B2E70120B0E7002300E033
:100E90000023002B00D120BFFFF74AFE2900FFF7F7
:100EA000D3FE0A4B5B6A9C420BD8084A926A964270
:100EB00009D99C4203D0012099E70123E9E70020EA
:100EC00095E7002093E7012091E7C04600400540E8
:100ED0007D070010004870470040054010B50B4BDF
:100EE0001B69002B04D00A210948FFF7F9FB10BD4C
:100EF000FFF7F0FF0400032100F00CF81023032299
:100F000021000248FFF7CAFDEDE7C0463C02002081
:100F10006C06002010B5024A0248FFF739FB10BDED
:100F2000A83A0010240400200200436A906A1900C5
:100F3000536A9942FAD17047416A00E0416A994286
:100F4000FCD300E0416A994202D1816A9142F9D30F
:100F50007047000010B50248FFF7E6FF10BDC0461D
:100F60000040054010B502000B000248FFF7E4FF07
:100F700010BDC04600400540F8B5D646474680B58E
:100F800006000D001700984644002418A400294BC1
:100F90009C4664446368089A934200D26260331F9F
:100FA000DBB29A46012B2ED980221201C0239B016D
:100FB000E3181A60B300204A9958002907D05069F5
:100FC00000F048FA431C5800C0180338FDD27F01D6
:100FD00022685740E022174080235B01E3181F601E
:100FE0005246012A1AD980239B01E318802212015C
:100FF0001A60089B6360B6000F4B4246F250C0BCBB
:10100000BA46B046F8BD012DCED10322C0239B01C4
:10101000E3181A60A368DB07FCD5D8E721686940AC
:1010200003220A401A60A3680122AA401A42FAD099
:10103000D9E7C0460080004028040020F0B583B006
:1010400005000E0017001800089900F003FA0300CD
:10105000089A140200943A0031002800FFF78CFF30
:1010600003B0F0BD10B582B0802464000094FFF797
:1010700083FF02B010BD00008000014BC0587047D4
:1010800028040020F0B5C64600B504000E00170085
:101090001D00364800F0DEF98046354BFA18354B16
:1010A0009A4238D80100380000F0D4F90200103A12
:1010B00098235B009A4234D86B1E062B37D8069BC8
:1010C000013B062B33D83F09474536D32D04069BF9
:1010D0001A0315432368002B35DB274B9C4243D072
:1010E0000C2301229A40254B1A60254B1A60254B90
:1010F0001B6811009943FAD12660A060224BE218C8
:10110000212313602368002BFCDAE56008231360B9
:1011100080BCB846F0BD1D4B1D4A11211D4802F090
:1011200095F91D4B1A4A19211A4802F08FF91B4BE9
:10113000174A1C21174802F089F9194B144A232138
:10114000144802F083F922683F231340B342C4D10C
:10115000A3681B051B0D8342BFD1E368EE22D202B8
:101160001340AB42B9D1D3E70D23BAE7001BB70058
:1011700080E84BD380F8A93200C0024000E0004074
:1011800000F0004008C0004004300000CC3A0010DD
:10119000D43B00101C3B0010503B00106C3B001077
:1011A000B83B001080239B000B43014AD362704779
:1011B0000080054010B5010018231B8814221088F8
:1011C000984710BD10B5010018231B8816221088FF
:1011D000984710BDF0B5C64600B507000E000025C3
:1011E0000123984600E00135B5420AD2AC003C1913
:1011F0002068FFF7DFFF20600028F4D10023984625
:10120000F1E7404680BCB846F0BD0000064BAA227C
:1012100012011A602F22DA60044B054A1A60024B51
:101220005B68002BFBDA7047004002400060024020
:1012300000B0FA0010B5040001E008CC9847024B5A
:101240009C42FAD310BDC046EC3700107047000036
:1012500010B50248FFF7EEFF10BDC046B0370010D2
:10126000054B064A1A60064B064A1A60064B1A6876
:10127000044B9343FAD1704700E00040BFCDFBFE22
:1012800000F00040FE7F3C0008C00040044BDB6CD7
:10129000002B03D1034B8022D2021A607047C04654
:1012A000000011504C201150044B054A1A60054BA8
:1012B0001B68DB43DB01FAD17047C04600F00040F9
:1012C000FFFFFF0108C00040034B40229A675A67A6
:1012D0001A67DA667047C04600F0014010B5FFF7A4
:1012E0007FF910BD70B5044CA168044DC0222800E0
:1012F00001F000F8A56070BD00ED00E000000020E6
:1013000070B50420FFF7B8FE064900F0A3F8050009
:101310000024002C00DD70BDE0B22900FFF742FF81
:101320000134F6E740420F0030B583B0274B00226E
:101330009A67FFF76BFF264B01221A60234B5B6C09
:10134000012BFBD1234B03221A60204B9B6B012BFB
:10135000FBD10133009304331F4A01211F48FFF7DB
:1013600091FE052300931E4A01211E48FFF78AFEC5
:101370001D4B002202210420FFF774FE1B4D2B00A1
:10138000002201210520FFF76DFE194C23000022E9
:1013900000210720FFF766FE23000022002108201D
:1013A000FFF760FE8023DB00009323000022002172
:1013B0000920FFF743FE2B00002200210620FFF743
:1013C00051FEFFF79DFF03B030BDC04600800040D6
:1013D0003CB0004030B00040002F6859008002400F
:1013E000008C864700C00240001BB70040597307BD
:1013F000006CDC0201480421014B18476002002008
:10140000D5110010124A936F9B0815D29066D166D1
:10141000002905D0FFE7FFE7FFE7516F106F704726
:1014200004B580210906C2175140002800D0C843E6
:1014300002F0AEF9002104BDF0B5146E556E576F81
:10144000166FFFF7E3FF1466556657671667F0BD22
:10145000000000D0114A936F9B0813D210665166AA
:10146000002905D0FFE7FFE7FFE7516F106F7047D6
:1014700004B5002801D00020C04302F089F9002102
:1014800004BDC046F0B5146E556E576F166FFFF76A
:10149000E5FF1466556657671667F0BD000000D07B
:1014A00094464A4A926F9208624601D228E0C046AA
:1014B000F0B5464E346E756E776F366F00F020F8DB
:1014C0009446424A14665566576716676246F0BDF1
:1014D00094463E4A926F9208624601D254E0C0465A
:1014E000F0B53A4E346E756E776F366F00F04CF88B
:1014F0009446364A14665566576716676246F0BDCD
:10150000002B24DB11D000293EDA00B5C94340424C
:1015100000D1013100F038F8C943404200D1013117
:10152000DB43524200D1013300BD002AEBD1002839
:1015300001D1002905D00020C90FC90701D1C0433E
:10154000410800B502F01CF90022002300BD00B5DF
:1015500000290ADBDB43524200D1013300F014F8CA
:10156000C943404200D1013100BDC943404200D1CE
:101570000131DB43524200D1013300F005F8DB4377
:10158000524200D1013300BD002923D1002B18D1D4
:10159000002A0CD0BC460D4F38667A660021002325
:1015A000FFE7FFE7FFE77A6F386F6746704700286D
:1015B00001D00748010000B502F0E2F80022002344
:1015C00000BD02000B00002000217047000000D089
:1015D000FFFFFFFF002B00D0BFE0130C28D1002A33
:1015E000E7D080B4114F39667A66FFE7FFE730B481
:1015F000040C7B6F396F1B0423433B667A66FFE75D
:10160000FFE7FFE7C04684B27B6F3D6F1B042343B7
:101610003B667A66FFE7FFE7C04600232C042D0CEB
:101620007A6F386F00196941B0BC7047000000D074
:10163000F0B594460025140E01D112020835140F9E
:1016400001D112010435940F01D192000235D40F5B
:1016500001D152000135D40B0134254F7C66254C55
:101660003C660E0C93B2FFE7FFE7FFE73C6F664373
:10167000360C7703BE467343DF0B5B04C01AB941D7
:10168000130C7343DB18C91ACE086643360CB644F4
:1016900093B273431F0F1B01C01AB941130C73435C
:1016A0001F0B1B05C01AB941860D8F023E436643CE
:1016B000360C092D24DB520A7243801A7703460A3E
:1016C0006643360C16235B1BDE40DF40BF196446C1
:1016D0006643821B7046043506330100D940A8409A
:1016E000C01900D30131A24206D20023F0BD000090
:1016F000000000D0FFFFFFFF121B0130F3D3F1E722
:1017000009277F1BFE406446A2B27243801A00D2B2
:101710000139220C7243130C1204821A99410B00F6
:101720007046043513370100F940A840801900D3F2
:101730000131002B02D1A2420AD2F0BD013000D308
:101740000131121BFAD2013BF8D1A24200D2F0BD06
:10175000013000D30131121BF7E7F0B51C0C00D0AB
:1017600080E00CB400251C0A04D11B02160E334382
:10177000120208351C0B04D11B01160F3343120152
:1017800004359C0B04D19B00960F33439200023525
:10179000DC0B02D192185B4101351C0097186441A3
:1017A0000134464F7C66464C3C660E0CFFE7FFE773
:1017B000FFE7C0463C6F6643360C7703BE4697B2E0
:1017C0007743C01B00D20139C01B00D201399FB240
:1017D0007743C91BC91B170C77437E04FF0B801B83
:1017E000B941CE086643360C0C2D33DBB644120BE0
:1017F0001F053A431B0B97B27743C01B00D2013938
:101800009FB27743C91B170C77433E043F0C801BE4
:10181000B941860D8F023E43664329277F1BFE4058
:101820000C3D7746AF40BF1930BCA2B2ABB2724399
:101830007343801A9941220C7243130C1204801ACC
:10184000994102000B000137001BA941F9D2781E13
:101850000021F0BD0C277F1BFE4077467F0BAF4079
:10186000FF19E0E700245D1C07D0144F7D66396640
:10187000FFE7FFE7FFE7FFE73C6F95B29EB26543E6
:101880006643401BB141150C1E0C6543664336048C
:101890002F0C3E432D04401BB141994204D202005B
:1018A0000B0020000021F0BD01D19042F7D3801A37
:1018B000994101349942F2D3F6E70000000000D0CC
:1018C000FFFFFFFF48404140484018B41B4B5B6896
:1018D000FC46019308BD04DF9B1B001018B4174B96
:1018E0001B68FC46019308BD00DFA51B0010944651
:1018F000134A926F920809D2624618B40F4BDB6804
:10190000FC46019308BD0CDF5D1E00100C4AF0B5CB
:10191000146E556E576F166F6246FFF7EEFF084A5A
:101920001466556657671667F0BD18B4034B9B687D
:10193000FC46019308BD08DF011D0010680400206B
:10194000000000D0FFB550404240504059404B404D
:10195000594000E0FFB5154F4C00640D03D0BC4268
:1019600004D10C0314D80020090D09055C00640D96
:1019700003D0BC4204D11C030AD800221B0D1B0556
:1019800001264B4009D44B4003D58B4200D1824203
:10199000FFBD9942FCD19042FFBD0B43DB180343CE
:1019A0001343F5D0C9434918FFBD0000FF070000ED
:1019B00000B5FFF7CFFF804100BDC04600B5FFF77F
:1019C000C9FF01D9002000BD012000BD00B5FFF70F
:1019D000B9FF01D9002000BD012000BD00B5FFF70F
:1019E000B1FF804100BD012040054A00121804D813
:1019F0005A00121801D800207047012070470000DB
:101A00000021002805D17047C1174840401AFAD07C
:101A1000C90713B5064B1B6898470CBC441CA24071
:101A20001005120B0349091B09051943114310BD89
:101A3000680500201F04000010B54C00620D8023D3
:101A4000D218DB00D21A5B057E2A10DD9E3A13DA2B
:101A5000CC170903490819435242D14064000134AC
:101A60001532202A05DAD0400843604310BD00201B
:101A700010BD0846604310BDC80FC018013810BD26
:101A800018B4044B5B6AFC46019308BD24DF0D20AB
:101A9000001000006804002070B513231C78012C8E
:101AA00014D0012C14DC022C02DC1F4A1F4B9A6458
:101AB0001F48FFF77FFB1F4B186070BD99001A4845
:101AC0001A4A885001331F2BF8D9EAE70023FAE7B6
:101AD0001948FFF777FB05001848FFF773FB02383A
:101AE00003789B007F2B19DD802229000F4800F02E
:101AF00001FC022CD7D1124B1A88B5231B029A4243
:101B000009D1104B1A88104B9A4204D10F4B1A88F6
:101B10000F4B9A42C7D00020FEF70CFD0D4B0E4A2A
:101B200033210E4801F092FC611B00106804002074
:101B30004C33000068050020534400005346000069
:101B400054380000D8380000494600009C38000096
:101B500059460000E03B00106C3C0010243C001093
:101B600007B56046002800D100BE01880A0A02308D
:101B7000DF2AFAD1C9B2820804D30288408800045F
:101B8000104300E00068024A5050039007BD000077
:101B9000680400200FB403BC0CBCF0B50124E407BA
:101BA000634000E0F0B50C0DCF0F661E3605891BB3
:101BB000640503D3C943404200D30131640D03D00F
:101BC000661CF60A07D0E41B00207F00791C8907F9
:101BD0008912803C24031D0DDF0F6E1E36059B1BF2
:101BE0006D0503D3DB43524200D301336D0D03D0A7
:101BF0006E1CF60A07D0ED1B00227F007B1C9B07A2
:101C00009B12803D2D032F1B661B58D4A446202E0B
:101C100046DA20371400BC401D00BD40F24033417D
:101C20002A4380185941CB0F05D0C943C043002235
:101C300064425041514162464D0D28D10D0D07D1EE
:101C400000281FD0241940414941013A0D0DF9D017
:101C5000640006D3013000D30131002C01D14008CB
:101C60004000013A0BD4941CE40A04D1120511443B
:101C7000DB071944F0BDD907204B194300E0D90711
:101C80000020F0BD0029DDD1002CDBD1F0BD0132F8
:101C9000C6074008CD0728434908002EE1D0D9E700
:101CA0003C2E29DA203E40371400BC4000D00124ED
:101CB000F24014431A00BB401C43D317ACE7AC46B8
:101CC000202F08DA20360400B4400D00B540F8405B
:101CD00039412843A5E73C2F0CDA203F4036040069
:101CE000B44000D00124F84004430800B1400C4344
:101CF000C117EAE710001900002494E70000F07F04
:101D0000F0B50C0D661E3605891BE60A6405640DE8
:101D100002D0651CED0A04D0002001210905803C99
:101D20002403A4461C0D671E3F05DB1BE70A640560
:101D3000640D02D0651CED0A04D0002201231B05AE
:101D4000803C24037740644497B484B296B27443D1
:101D5000070C7E43150C6F4380B26843361802D3DC
:101D6000012000043F183004350C00197D418446E1
:101D700088B29AB250430C0C62431F0C7C438EB263
:101D80007E43921902D301263604A4191604170CB7
:101D90003618674101BC81B29AB25143040C6243C8
:101DA0001B0C5C4380B25843121802D3012000047C
:101DB00024181004130C401863412D185E410020B4
:101DC000474106BC88B293B258430C0C6343120CD3
:101DD000544389B251435B1802D3012109046418AA
:101DE00019041A0C091862416D1856410020474128
:101DF00018BCF902720D1143F0026A0D1043ED0296
:101E00000A0D03D16D1940414941013B124E9B1B04
:101E10007600B3420ED26D0007D301300026714127
:101E20006646354301D1400840001B05C918E40748
:101E30002144F0BD0BDA013306D1013004D1013168
:101E40004F0D01D04908F2E7E1070020F0BD01364F
:101E500031050020EBE70000FF030000F0B51C0D8A
:101E6000671E3F05DB1BE70A6405640D02D0661C94
:101E7000F60A04D0002201231B05803C2403D02550
:101E80002D060026F6432E661E096E66CE0FF61945
:101E9000B44649004F0D02D07E1CF60A03D0002044
:101EA0000021403F3F033E1BB600B444013F7F0585
:101EB000C91B49082E6F013676089C02950D2543F3
:101EC0007543ED137543AD1301356D10F603761BA5
:101ED0000CB4CC02450D2C43A2B2B3B25A43270C2A
:101EE0007B43350C6F43A4B26C431B1902D301240E
:101EF00024043F191C041D0CA4187D4124196D41B4
:101F0000009A91B2ACB26143170C7C432B0C5F4337
:101F100092B25A43A41802D301221204BF18220419
:101F2000230C52187B41019C6C431B19520ED901A2
:101F30000A434401A01A81B2B2B2514303145A4376
:101F4000360C734387B27743D617D21900277E41E8
:101F500036049B191704160C7F185E417316ED1892
:101F6000F301002680337541A90F06D16400690A88
:101F7000E8055B0A184309D22FE004229444803319
:101F80007541A90AA8059B0A184326D34041494137
:101F90002404009A019B0D005543641B4343E41A3B
:101FA00095B286B27543170C7E43030C5F4392B221
:101FB0005A43B61802D301221204BF183204330C5C
:101FC00052197B4152429C41002C02D40022013024
:101FD00051414008CA071043490802B06246D7077A
:101FE0009210084BD218084B9A4203D21205891856
:101FF000C919F0BD0020002A01DC3900F0BD013311
:102000001905F5E7FD030000FE070000002200B5FA
:10201000203200F004F8080000BD000000220B157B
:102020000AD410B5944600F031F81414013400DAE3
:102030000021CB17144C2047002000217047624438
:10204000343A0CD40C2A07DA0400914090405242F2
:102050002032D440214310BDD843D94310BD203293
:1020600007D40C469440524220321141D0402043C4
:1020700010BD0800C917203203D45242203210414B
:1020800010BD1800190010BD3F2000100A0DCC0F24
:10209000531E1B05C91A520503D3C943404200D33E
:1020A0000131520D03D0531CDB0A07D0121B002054
:1020B0006400611C89078912803A1203014BD21A0D
:1020C00070470000FF03000051434343C9188C468A
:1020D000110C83B24B4310B4040C614392B280B232
:1020E000504362431C041B0C001910BC59411304DB
:1020F000120CC018514161447047000048404140F3
:10210000484000239C46114B5B68184700239C46BF
:102110000E4B1B6818470E4A936F9B0804D200238E
:102120009C460A4BDB681847F0B5146E556E576F26
:10213000166FFFF7F4FF064A146655665767166771
:10214000F0BD00239C46014B9B6818476C0500209E
:10215000000000D0491A002808D108467047000046
:10216000C10FC90700D54042002817D0F44603B478
:102170000B4B1B68984706BC81409E38404280311B
:1021800007D20B0607D04900490AC005104308438F
:1021900060470130F8E7490A8902F5E77047000017
:1021A0006805002000239C46014B5B6A184700002D
:1021B0006C05002070B513231D782A48FFF702F83C
:1021C0000400012D11D0012D09DDA31E1B789B00F9
:1021D0007F2B40DD80222100234800F08BF823482C
:1021E000FEF7E8FF224B186070BD542201001E4824
:1021F00000F080F81F4B1A881F4B9A421CD1A7236E
:102200009B011A881D4B9A4216D11D4B1A881D4BF3
:102210009A4211D11C4B1A8894239B019A420BD1EC
:102220001A4B1A881A4B9A4206D11A4B1A681A4B43
:102230009A4201D1152307E01848FEF77BF999006F
:102240001748094A885001331F2BF8D9144A064B06
:102250001A62DA61B7E7134B134A4221134801F0BF
:10226000F5F8C046534600006C0500204C330000D2
:1022700068050020EE290000C40F0000C20D000018
:10228000962B0000C0B50000182B0000CC2A0000DF
:1022900010B50000FC2C000051ED87645C4000107C
:1022A000B1220010803C0010F83C0010B43C00103B
:1022B00007B56046002800D100BE01880A0A023036
:1022C000DF2AFAD1C9B2820804D302884088000408
:1022D000104300E00068024A5050039007BD000020
:1022E0006C05002001480421014B184770020020B2
:1022F000D5110010014B5B681847000070020020E8
:10230000704710B5002802D00B684968984710BD87
:102310000100002007E083001B185B00501C0860D0
:102320001078C01830380A681378303BDBB2092BBC
:10233000F1D97047F0B5DE4657464E464546E0B502
:1023400083B093461F000C9B9A460D9C0E9B9946AA
:102350000F9B9B0703D0B8460F00060022E00192B6
:10236000A34688464E46B9460700B44207D2551CDC
:102370004B4641462020B84701342A00F5E73D008E
:102380004F465C46019B9B46B1464646B8463700E1
:102390002E0007E0013C551C5346185D43463900AA
:1023A000B0472A00002CF5D135003E0047460F9B70
:1023B0009B0707D4100003B0F0BCBB46B246A94649
:1023C000A046F0BDB0464E46B9462F005D46531BB1
:1023D000B342EFD2541C4B4641462020B84722005E
:1023E000F5E7F0B5CE46474680B585B094469846A9
:1023F0000C9D0D9C0EAB1B789946109A119B129E5A
:10240000B7071CD4002B0CD0F7070AD54F46002F76
:1024100002D10C37374204D0013B02E030272F5560
:102420000134944201D21F2CF8D9F70707D59C42FA
:1024300005D21F2C03D830272F550134F5E7F706B6
:1024400015D5770505D4002C03D0944224D09C42A6
:1024500022D00F9A102A2BD00F9A102A30D00F9A20
:10246000022A35D01F2C02D830222A5501341F2CC5
:1024700005D84A46002A31D02D222A550134039628
:1024800002930194009543466246FFF753FF05B05F
:10249000C0BCB946B046F0BD621E012C06D00F9FED
:1024A000102F01D01400D4E7023CD2E71400D0E78B
:1024B000B206D1D41F2CCFD878222A550134D1E7C7
:1024C000B206CCD51F2CCAD858222A550134C9E7E8
:1024D0001F2CC7D860322A550134C3E7720703D5D1
:1024E0002B222A550134CAE73207C8D520222A55A3
:1024F0000134C4E7F0B5DE4657464E464546E0B5E2
:1025000093B081468A46089209931CAB10CB1B7886
:102510009B461E9D219B9846002C03D110234246CA
:102520009A4390468023DB0046461E4042461A42AC
:1025300012D0002C22D000260EE03033D9B2771C06
:102540000AAB995529002000FEF784FFAC4216D350
:102550001F2F14D83E00040029002000FEF77AFF48
:10256000CBB2092BE9D94246920605D54121C918BB
:10257000C9B20A39C9B2E2E76121F8E72700434648
:102580000693209B05931F9B049303955B46029340
:1025900001970AAB0093099B089A51464846FFF7FA
:1025A00020FF13B0F0BCBB46B246A946A046F0BD22
:1025B000F0B5DE4657464E464546E0B595B0089024
:1025C00009910A920B931E9E1F9C20AB1B789B4681
:1025D000229B9946239D269B9A463300234303D191
:1025E000103352469A4392468023DB0057461F40E1
:1025F00052461A4219D0330023432DD0002714E04D
:102600003033DAB27B1C98460CABDA554A462B00C5
:1026100030002100FEF75CFFA5421FD819D04346C9
:102620001F2B1BD8474606000C004A462B003000E3
:102630002100FEF74DFFD3B2092BE1D95246920695
:1026400005D54122D218D2B20A3AD2B2DAE76122D3
:10265000F8E7B145E3D901E00023984653460693D5
:10266000259B0593249B04934B4603935B4602935F
:10267000434601930CAB00930B9B0A9A0999089867
:10268000FFF7AFFE15B0F0BCBB46B246A946A04668
:10269000F0BD0000F0B5DE4657464E464546E0B573
:1026A00091B083468A460C9298461A9C08941B9DCA
:1026B000099522002B0020002900FFF794F900283B
:1026C00000D0E5E001225242D74B20002900FFF75D
:1026D00085F9002800D0DBE001225242D34B2000D4
:1026E0002900FFF765F9002800D0D1E0002200237F
:1026F000089E3000099D2900FFF75AF9002800D0F4
:10270000DDE008980999069007918023DB001E9A66
:102710001A400D921E9A1A4201D106231C93069864
:10272000079904000D000A000600024300D1D1E021
:10273000080D4005400DBE4CA44660440A03120B30
:10274000BC4B13431F00FFF75FF9BB4ABB4BFFF7BE
:10275000ECF8BB4ABB4BFFF7C1F804000D000022A8
:10276000B94B30003900FFF7B0F8B84AB84BFFF763
:10277000DCF802000B0020002900FFF7AFF8FFF79C
:102780005BF98146FFF740F904000D00B14AB24BF6
:10279000FFF7CBF80022B14BFFF7A0F8FFF74CF999
:1027A0000600AF4AAF4B20002900FFF7BEF8040037
:1027B0000D003000FFF728F9AB4AAC4BFFF7B5F836
:1027C00002000B0020002900FFF77FF804000D0035
:1027D00002000B00FFF7A9F80A900B91A44BF31825
:1027E00000261F0522002B0020002900FFF776F8A5
:1027F0000E900F9122002B0000208021C905FFF7C9
:1028000064F804000D0000229A4B0A980B99FFF718
:102810006EF80022984BFFF761F802000B000A984F
:102820000B99FFF764F80022944BFFF757F802006A
:102830000B000A980B99FFF75AF802000B002000D2
:102840002900FFF74BF802000B000E980F99FFF7D5
:102850004EF80022774BFFF741F832003B00FFF7BC
:1028600064F806000F0004000D00069A079BFFF7AE
:10287000B5F8002830D001235B429C46E144002299
:102880007D4B30003900FFF732F804000D0023E0E3
:102890001E9B04931D9B03931C9B0293089A099B08
:1028A0000092019343460C9A5146584600F0FCF8BA
:1028B00011B0F0BCBB46B246A946A046F0BD00230D
:1028C000002406930794069680231B069C466544C5
:1028D00007951AE7002399464B466333C62B1ED84B
:1028E00004261E9B1B0526D52B0023430FD0644ACC
:1028F000644B06980799FFF769F8002879D0002201
:10290000614B06980799FFF753F8002871D01C9B7C
:102910004B4506DD4A46981A431E1C9303E00526E4
:10292000DFE700231C938023DB001E9A1A431E92CC
:102930000026002399461D9B9E4264D29F1B0223C2
:102940001E9A1A400A921E9A134202D0002E00D0FC
:1029500000274B46002B07D022002B000698079932
:10296000FEF7C5FF069007910022002308980999F9
:10297000FFF71EF8002848D1444B1E9A13400493D9
:1029800003971C9B0293069B079C0093019443466C
:102990000C9A5146584600F087F8002E00D187E780
:1029A0001E9B9B063DD54525441C434602005146CF
:1029B0002800D8474B46DA179B185340052205924A
:1029C000013E0496002203920A3202924A46D00F38
:1029D000019000934346220051465846FFF78AFD76
:1029E0000A9B002B00D163E702005F460C9E1D9DF1
:1029F00054E01C9B002B9ED00D9B002B9BD01C9B5E
:102A0000013B1C9397E7002799E7069C079D22004E
:102A1000290080200006844661440B00069207933B
:102A2000AAE76525C0E7C046FFFFEF7FFFFFEFFF86
:102A300001FCFFFF0000F03FFB799F501344D33FA0
:102A4000B3C8608B288AC63F0000F83F61436F63BC
:102A5000A787D23F71A379094F930A400000E03F56
:102A60001655B5BBB16B0240EF39FAFE422EE63F78
:102A7000FF03000000002C4000002440000018402C
:102A80002D431CEBE2361A3F80842E41FFF7FFFFF7
:102A9000541C434651462020B8472200931BAB42AA
:102AA000F6D3100004E7C046F0B5DE4657464E4662
:102AB0004546E0B595B00690079193469946209F0C
:102AC0001E9A1F9B10001900FEF78DFF002831D1C0
:102AD00001225242BF4B1E981F99FEF769FF002842
:102AE00037D101225242BC4B1E981F99FEF776FF48
:102AF00000283DD10022B94B1E981F99FEF76EFFAA
:102B0000002850D10022B64B1E981F99FEF750FFA7
:102B1000002848D1002200231E981F99FEF748FF85
:102B2000002850D100239846229B5B0500D4B6E0D4
:102B3000002458E0229B0393219B029303230193DB
:102B4000A84B00934B465A4607990698FFF7F2FBAD
:102B50000EE1229B0393219B029304230193A24B3A
:102B600000934B465A4607990698FFF7E3FBFFE0B0
:102B70000423229A1A4022990B4210D09B4B002A20
:102B80000FD004222299039121990291019200937E
:102B90004B465A4607990698FFF7CCFBE8E0944B62
:102BA000EDE70322EEE7229B0493219B0393029718
:102BB0001E9B1F9C009301944B465A46079906980A
:102BC000FFF768FDD4E01E9A1F9B00200021FEF74E
:102BD0007CFE1E901F9101239846A5E70CAB302286
:102BE0001A55013F01341F2C01D8092FF6D81E9821
:102BF0001F99FEF721FF0500FEF706FF02000B00FC
:102C00001E981F99FEF761FEFA007A4B9B181A680E
:102C10005B680A920B93FEF788FE08900991FEF715
:102C20002FFF0600FEF7ECFE02000B000898099942
:102C3000FEF74BFE0890099100226F4BFEF7CEFE87
:102C400000282ED001363000FEF7DAFE02000B001D
:102C50000A980B99FEF7B2FE002801D00135002634
:102C6000002F2CD12800FEF7CFFE02000B001E988B
:102C70001F99FEF72AFE06000F0000225E4BFEF7AA
:102C800097FE002846D100225B4B30003900FEF74A
:102C9000A5FE00283ED1EB073CD501353AE00627DA
:102CA00046E70022544B08980999FEF781FE002858
:102CB000D6D1002E01D0F307D2D50136D0E7AA46EF
:102CC0001F2C11D8013F0A213000FEF7C3FB651C01
:102CD00030310CAB19550A213000FEF7BBFB092E31
:102CE0000ED906002C00EBE755461F2C0CD87B1E96
:102CF000002F09D00CAA302111551F000134F4E730
:102D00002B0055461C00F0E71F2C03D80CAB2E22DD
:102D10001A5501341F2C10D80A212800FEF772FB27
:102D2000661C30310CAB19550A212800FEF76AFBEE
:102D3000051E01D03400EDE734000323229A13402E
:102D4000012B1CD01F2C06D84346002B32D00CABD5
:102D50002D221A550134229B0393219B0293019447
:102D60000CAB00934B465A4607990698FFF7E2FAD8
:102D700015B0F0BCBB46B246A946A046F0BD219BAB
:102D8000002B13D04346002B02D10C3313420FD03B
:102D9000219B013B2193190003E00CAB30221A5513
:102DA00001348C42CED21F2CF7D9CBE72199F8E71A
:102DB0002199F6E7229B5B0704D50CAB2B221A5511
:102DC0000134C8E7229B1B07C5D50CAB20221A553E
:102DD0000134C0E7FFFFEFFFFFFFEF7F65CDCD417F
:102DE00065CDCDC1103E0010143E0010083E00100D
:102DF000043E0010004000100000E03FF0B5DE4649
:102E000057464E464546E0B593B082468B469046BF
:102E10001193002900D1EBE200275546119B187849
:102E2000002800D1E7E2252809D07C1C43463A005F
:102E30005946A847119B013311932700EEE7013350
:102E400011930024119A11780B00203BD8B210285E
:102E500003D88300D048C3589F460B00303BDBB2F9
:102E6000092B2CD92A292FD000230A93119B1A78D9
:102E70002E2A39D000239A46119A1378683BD9B28A
:102E8000122976D88B00C549CB589F4601231C4395
:102E900001321192D6E702231C4301321192D1E78D
:102EA00004231C4301321192CCE708231C43013256
:102EB0001192C7E710231C4301321192C2E711A8F7
:102EC000FFF726FA0A90D1E71C9B1A1D1C9218687E
:102ED000002804DB0A90119B01331193C6E70223FB
:102EE0001C4343420A93F6E78022D20014435A1C43
:102EF00011925A781300303BDBB2092B04D92A2AED
:102F000007D000239A46B7E711A8FFF701FA8246D7
:102F1000B2E71C9B1A1D1C921868002804DB82462D
:102F2000119B01331193A7E70020F8E780235B0092
:102F30002343511C119152786C2A01D01C0018E0D7
:102F4000C0239B001C430131119112E080232343D5
:102F5000511C11915278682A01D01C0009E0C0234D
:102F60001C430131119104E080235B001C430132BA
:102F70001192119B18780300253BDAB2532A00D92D
:102F80002CE29300864AD3589F4680239B001C4323
:102F900001321192EDE780235B001C430132119254
:102FA000E7E7782809D0582838D06F2838D0622829
:102FB00038D010239C430A2600E01026582833D02E
:102FC000692803D0642801D00C229443630501D5FD
:102FD0000122944369282AD0642828D0A30500D56B
:102FE0009FE0E30500D5B8E0630600D4CAE01C9A70
:102FF000111D1C911168FF220A4005940A9B04933D
:1030000053460393029600230193009243463A00ED
:1030100059462800FFF76EFA070027E01026CDE793
:103020000826CBE70226C9E720221443C8E7A305F8
:1030300020D4E30550D4630666D51C9A111D1C915B
:103040001168FF220A40D317D118594005940A9BF2
:103050000493534603930296D20F01920091434684
:103060003A0059462800FFF745FA0700119B013343
:103070001193D3E61C9BDA1D07218A431100083106
:103080001C91116853689C46DB170C930D930C9AA6
:103090000D9B100048400E90624653400F930E98CF
:1030A0000F990C9A0D9B801A99410E900F910894DC
:1030B0000A9B0793534606930496002305936346A1
:1030C000DA0F02920090019143463A0059462800D7
:1030D000FFF76EFA0700C9E71C9A111D1C911268D0
:1030E000D317D118594005940A9B04935346039370
:1030F0000296D20F0192009143463A0059462800A9
:10310000FFF7F8F90700B1E7230605D51C9A111D52
:103110001C910023D25E96E71C9A111D1C91126827
:1031200091E71C9BDA1D07218A43110008311C918D
:1031300008940A9B0793534606930496002305932D
:103140000293136854680093019443463A00594629
:103150002800FFF72DFA070088E71C9A111D1C9123
:1031600005940A9B0493534603930296002301930C
:103170001368009343463A0059462800FFF7BAF90E
:10318000070073E723060DD51C9A111D1C911268C8
:103190001204120C31E7C0461C3E0010603E0010C5
:1031A000AC3E00101C9A111D1C91126825E74628A0
:1031B0001AD01C9B0733072293431A0008321C9233
:1031C00004940A9A0392524602925C681B68009328
:1031D000019443463A0059462800FFF765FC070072
:1031E000119B0133119319E620231C43E1E7672863
:1031F00001D0472802D180231B011C43452801D060
:10320000472801D120231C431C9B073307229343EB
:103210001A0008321C9204940A9A039252460292AF
:103220005C681B680093019443463A0059462800A5
:10323000FFF730FA0700119B01331193EEE50223EB
:103240001A002240924623421FD001241C9B1A1DC3
:103250001C927A1C9146187843463A005946A84772
:103260005346002B16D1119B013311934F46D5E5E0
:10327000561C434659462020B847230032005C1CA8
:103280009D42F5D83D001700E0E701233A002F00EA
:103290000A9DF4E74A46A9460A9D06E0571C4346A4
:1032A00059462020C84734003A00661CA542F5D88C
:1032B0004D469146D7E71C9B1A1D1C921B689946E8
:1032C0005346002B00D1013B4E4601E0013613006E
:1032D0003278002A02D05A1E002BF7D14B46F21A40
:1032E00010928023DB0026001E401C4203D0524572
:1032F00001D95346109302231A0022400B92234215
:1033000005D03A0037004C46A946554620E03A0021
:10331000109B5F46B3462E0006E0551C434639001D
:103320002020B04723002A005C1C0A999942F4D857
:1033300035005E46BB46109437004C46A9465546BC
:1033400006E01D000134561C43465946C84732006A
:103350002078002804D0002FF4D06B1E002DF0D16F
:1033600017004D460B9B002B03D1119B013311938A
:1033700054E50A9F109B06E0561C43465946202000
:10338000A847230032005C1C9F42F5D81700ECE7E9
:1033900021231C431C9B1A1D1C921B68009305943F
:1033A00008230493534603931023029300230193AD
:1033B00043463A0059462800FFF79CF80700119B46
:1033C000013311932AE57C1C43463A0059462520D7
:1033D000A847119B0133119327001FE57C1C43462E
:1033E0003A005946A847119B01331193270015E570
:1033F0000A4B9A4610E5AA46474502D343465A1E51
:1034000000E03A00434659460020D047380013B048
:10341000F0BCBB46B246A946A046F0BD0123001051
:1034200000B585B0029003910121009313004A4238
:1034300002A90248FFF7E2FC05B000BD032300101B
:1034400000BEFDE710B5FFF7FBFF000010B582B02E
:103450000C001900002A0CD0084B002A0BD0019256
:10346000009323000200064800F046F90120FFF710
:10347000E7FF044BF1E7034AF1E7C0465040001074
:10348000604000105C40001010B5EFF30583002B86
:1034900000D000BEFDF7DCFE034C01E008CC9847ED
:1034A000024B9C42FAD310BDEC370010F0370010ED
:1034B00010B50300080011001B68984710BD0000FC
:1034C000F8B507000D001600437D002B02D0002444
:1034D00000200CE003681100280098472DE03B7D98
:1034E00010E0022115483B689847601C0134B44243
:1034F00014DA002CF3DD2B19013B1B780D3B5A42EB
:103500005341DBB22A5D0A2AF0D1002BEED1A04252
:10351000E7DA211A28183B689847E2E7B04203DA55
:10352000311A28183B689847002E06DDAD19013D79
:103530002B780D3B5A4253413B75F8BD904000102B
:1035400070B505000368002B16D00C4B1C6805E015
:10355000290004C92000FFF7B3FF2469002C09D01B
:103560002368002BF9D0064B1B68002BF0D0A34238
:10357000F3D1EDE700232B6070BDC046500400205E
:103580005404002070B505000C000B68802B05D09A
:1035900021684B1C23606418257170BD0800FFF77B
:1035A000CFFFF5E710B5FDF7D5FC074A0023121849
:1035B0004B41002B03DB054800F0F2F810BD01225F
:1035C0005242034BF7E7C04640420F008002002002
:1035D000FFFFFF7F10B5024800F0CAF810BDC046DB
:1035E00080020020F0B5CE46474680B583B0060085
:1035F0000D0090461C00FFF7D5FF81466B1C05D0DF
:10360000002C08D0184F194B1C6807E0300000F060
:103610007FF80500F4E7164FF5E72469002C17D072
:103620002368002BF9D0134B1B68002B01D0A34259
:10363000F3D12A0031002000B8474346002BECD0DC
:103640006B46D91D0A230B7001222000B847E4E71E
:103650004B46002B05D1280003B0C0BCB946B0468C
:10366000F0BDFFF7B7FFF6E7C134001050040020AB
:10367000B13400105404002010B5064B1C6801E062
:1036800098472469002C03D06368002BF8D1F8E731
:1036900010BDC0465004002070B5050000F038F899
:1036A00004000123012201002800FFF79BFFFFF720
:1036B000E3FF200070BD000070B5A2B004000E0052
:1036C000FFF770FF0500002301933300220001A9DA
:1036D0000848FFF7A5FE040001A8FFF731FFFFF738
:1036E000CBFF002D02D1200022B070BDFFF772FF8A
:1036F000F9E7C046853500100FB400B583B004A9C2
:1037000001C90191FFF7D8FF03B008BC04B0184706
:1037100010B583070AD00300032102E001330B42F6
:1037200005D01A78002AF9D1181A10BD03001968BB
:103730000C4A0D4C8A188A4322420FD15968094A13
:1037400004338A188A43224208D15968054A04334F
:103750008A188A432242F1D000E001331A78002A05
:10376000FBD1E1E7FFFEFEFE80808080F8B5C04619
:1037700001B40248844601BC604700BFC901002073
:1037800001B40248844601BC604700BF1502002016
:1037900001B40248844601BC604700BF1502002006
:1037A00001B40248844601BC604700BF9501002077
:1037B000611200108D120010F5130010E5220010A8
:1037C000991A0010B521001029130010A912001039
:1037D000C9120010DD12001029070010E5120010B8
:1037E000DD0E00104D12001031060010B102001065
:1037F000427574746F6E2070726573736564000037
:103800000A2A2A2A2050414E4943202A2A2A0A00FD
:103810000A00000064656C7461203E3D202D32304A
:1038200034382026262064656C7461203C3D2032AB
:1038300030343620262620212864656C74612026C9
:1038400020312900433A5C7069636F5C7069636F73
:103850002D73646B5C7372635C7270325F636F6D47
:103860006D6F6E5C68617264776172655F697271B9
:103870005C6972712E63000063757272656E7420EC
:103880003D3D205F5F756E68616E646C65645F7559
:103890007365725F697271207C7C206375727265DA
:1038A0006E74203D3D2068616E646C65720000009E
:1038B0006972715F7365745F6578636C757369763F
:1038C000655F68616E646C657200000031203D3D8B
:1038D000202875696E747074725F74296C2D3E7344
:1038E00070696E5F6C6F636B00000000433A5C7040
:1038F00069636F5C7069636F2D73646B5C73726373
:103900005C636F6D6D6F6E5C7069636F5F73796E12
:10391000635C6D757465782E63000000746F74616C
:103920006C0000006D74782D3E636F72652E7370AD
:10393000696E5F6C6F636B006C6F636B5F69735F65
:103940006F776E65725F69645F76616C6964286D1C
:1039500074782D3E6F776E65722900006D74782D36
:103960003E656E7465725F636F756E740000000073
:103970006D757465785F6578697400006D75746540
:10398000785F656E7465725F626C6F636B5F756E96
:1039900074696C0072756E74696D655F696E6974C7
:1039A0005F6D757465780000706F6F6C2D3E746983
:1039B0006D65725F616C61726D5F6E756D203D3D0E
:1039C0002074696D65725F616C61726D5F6E756D9B
:1039D00000000000433A5C7069636F5C7069636F5C
:1039E0002D73646B5C7372635C636F6D6D6F6E5C83
:1039F0007069636F5F74696D655C74696D652E6372
:103A00000000000064656661756C745F616C6172D2
:103A10006D5F706F6F6C5F696E697469616C697AF4
:103A20006564282900000000417474656D70746538
:103A30006420746F20736C65657020696E736964AF
:103A400065206F6620616E20657863657074696FAC
:103A50006E2068616E646C65723B207573652062D0
:103A60007573795F7761697420696620796F752055
:103A70006D75737400000000616C61726D5F706F32
:103A80006F6C5F6765745F64656661756C74000078
:103A9000616C61726D5F706F6F6C5F6972715F688E
:103AA000616E646C65720000486172647761726572
:103AB00020616C61726D20256420616C72656164A7
:103AC0007920636C61696D656400000076636F5FE7
:103AD00066726571203E3D205049434F5F504C4C0B
:103AE0005F56434F5F4D494E5F465245515F485ABE
:103AF0002026262076636F5F66726571203C3D202C
:103B00005049434F5F504C4C5F56434F5F4D4158B7
:103B10005F465245515F485A00000000433A5C70CE
:103B200069636F5C7069636F2D73646B5C73726340
:103B30005C7270325F636F6D6D6F6E5C6861726432
:103B4000776172655F706C6C5C706C6C2E630000EA
:103B50006662646976203E3D203136202626206646
:103B600062646976203C3D203332300028706F73E8
:103B7000745F64697631203E3D2031202626207016
:103B80006F73745F64697631203C3D2037292026AD
:103B9000262028706F73745F64697632203E3D2062
:103BA0003120262620706F73745F64697632203C62
:103BB0003D203729000000007265665F66726571FE
:103BC000203C3D202876636F5F66726571202F2050
:103BD00031362900706C6C5F696E697400000000FA
:103BE0002A282875696E74385F74202A29282828A5
:103BF000766F6964202A29726F6D5F7461626C65EB
:103C00005F666C6F6174292D322929202A203420A7
:103C10003E3D2053465F5441424C455F56325F5310
:103C2000495A4500433A5C7069636F5C7069636F21
:103C30002D73646B5C7372635C7270325F636F6D63
:103C40006D6F6E5C7069636F5F646F75626C655CED
:103C5000646F75626C655F696E69745F726F6D5FCA
:103C60007270323034302E63000000005F5F616597
:103C70006162695F646F75626C655F696E6974002B
:103C80002A282875696E74385F74202A29726F6D2E
:103C90005F7461626C652D3229202A2034203E3DFC
:103CA0002053465F5441424C455F56325F53495A58
:103CB00045000000433A5C7069636F5C7069636F34
:103CC0002D73646B5C7372635C7270325F636F6DD3
:103CD0006D6F6E5C7069636F5F666C6F61745C665C
:103CE0006C6F61745F696E69745F726F6D5F727023
:103CF000323034302E6300005F5F61656162695F5E
:103D0000666C6F61745F696E69740000446562750A
:103D100067000000626F6F74325F77323571303840
:103D20003000000068747470733A2F2F67697468EC
:103D300075622E636F6D2F72617370626572727936
:103D400070692F7069636F2D6578616D706C657334
:103D50002F747265652F484541442F70776D2F622F
:103D60007574746F6E5F62757A7A65725F62646C87
:103D700000000000322E312E300000007069636FA9
:103D800000000000627574746F6E5F62757A7A6508
:103D9000725F62646C00000046656220313320323D
:103DA0003032350005005250DE65F4687C42001068
:103DB000060052505422A29D983D00100600525019
:103DC000861C0302843D001006005250BBFF3CB627
:103DD0007C3D001006005250ABB36053743D0010A0
:103DE000060052509A235618243D001006005250E7
:103DF000E182887F143D001006005250D3F07542D6
:103E00000C3D0010666E6900666E692B00000000B4
:103E10006E616E00666E692D00000000AA2E001013
:103E20005A2E00105A2E0010B42E00105A2E0010D8
:103E30005A2E00105A2E00105A2E00105A2E001022
:103E40005A2E00105A2E0010A02E00105A2E0010CC
:103E5000962E00105A2E00105A2E00108C2E001094
:103E60004C2F0010722F00108A2F0010722F00109C
:103E70002C2F0010722F0010722F0010722F0010C4
:103E8000722F0010722F0010722F0010722F00106E
:103E9000682F0010722F0010722F0010722F001068
:103EA000722F0010722F0010962F0010C6330010D2
:103EB000DC330010DC330010DC330010DC33001086
:103EC000DC330010DC330010DC330010DC33001076
:103ED000DC330010DC330010DC330010DC33001066
:103EE000DC330010DC330010DC330010DC33001056
:103EF000DC330010DC330010DC330010DC33001046
:103F0000DC330010DC330010DC330010DC33001035
:103F1000DC330010DC330010DC330010DC33001025
:103F2000DC330010DC330010DC330010EE31001005
:103F3000AE310010EE310010DC330010DC33001025
:103F4000DC330010DC330010DC330010DC330010F5
:103F5000DC330010DC330010DC330010DC330010E5
:103F6000DC330010DC330010DC330010DC330010D5
:103F7000DC330010DC330010A22F0010DC33001003
:103F8000DC330010DC330010DC330010DC330010B5
:103F9000DC330010DC330010DC330010DC330010A5
:103FA000A22F00103E320010A22F0010EE310010A0
:103FB000AE310010EE310010DC330010A22F0010E3
:103FC000DC330010DC330010DC330010DC33001075
:103FD000DC330010A22F001090330010DC330010EF
:103FE000DC330010B6320010DC330010A22F0010BA
:103FF000DC330010DC330010A22F001000000000A2
:10400000000000000000F03F00000000000024401D
:1040100000000000000059400000000000408F40F8
:10402000000000000088C34000000000006AF84063
:104030000000000080842E4100000000D012634187
:104040000000000084D797410000000065CDCD41FD
:104050002C2066756E6374696F6E3A200000000054
:10406000617373657274696F6E20222573222066F6
:1040700061696C65643A2066696C6520222573224B
:104080002C206C696E65202564257325730A000059
:044090000D0A000015
:10409400A43D0010B03D0010BC3D0010C83D001010
:1040A400D43D0010E03D0010EC3D0010F83D001040
:1040B40003000068EFF3108C72B60268002AFCD08B
:1040C400BFF35F8F04229A56002A0BDB002910D01D
:1040D4000A6000201B68BFF35F8F00221A608CF314
:1040E40010887047D0221206127852B21A71012039
:1040F400F0E70020EEE70000F8B5CE46474680B56D
:104104000400170098460368002B20D0D0231B0618
:104114001B785BB299462668EFF3108C72B635684B
:10412400002DFCD0BFF35F8F04256557002D14DBF1
:104134002368BFF35F8F00221A608CF31088380065
:10414400414600F061F80028E5D000200FE00A4B5A
:104154000A4AA6210A4800F05FF84B4623712368F7
:10416400BFF35F8F00221A608CF310880120C0BC5B
:10417400B946B046F8BDC046243900107C39001059
:10418400EC38001070B582B0060015001C0001A9BF
:10419400FFF78EFF002807D1019B5BB2D0221206E5
:1041A400127852B2934201D102B070BD2A002300AA
:1041B4003000FFF7A1FFF7E710B50268EFF31081B5
:1041C40072B61368002BFCD0BFF35F8F0423C35671
:1041D400002B0ADBFF2303710368BFF35F8F002208
:1041E4001A6081F3108840BF10BD034B034AD521E8
:1041F400034800F011F8C046383900107039001037
:10420400EC3800107047C04601B40248844601BC33
:10421400604700BFC10D001001B40248844601BCD0
:10422400604700BF4D340010100000000000000083
:10423400000000000000000000000000000000007A
:1042440088020020000000000000000000000000C0
:10425400503300004C33000054330000523300004C
:104264004D5300004D43000053340000433400001C
:08427400000000000000000042
:04000005100001E9FD
:00000001FF
